{"abi":[{"type":"receive","stateMutability":"payable"},{"type":"function","name":"blueprintId","inputs":[],"outputs":[{"name":"","type":"uint64","internalType":"uint64"}],"stateMutability":"view"},{"type":"function","name":"blueprintOwner","inputs":[],"outputs":[{"name":"","type":"address","internalType":"address"}],"stateMutability":"view"},{"type":"function","name":"calculateCost","inputs":[{"name":"op","type":"address","internalType":"address"},{"name":"durationSecs","type":"uint32","internalType":"uint32"}],"outputs":[{"name":"cost","type":"uint64","internalType":"uint64"}],"stateMutability":"view"},{"type":"function","name":"canJoin","inputs":[{"name":"","type":"uint64","internalType":"uint64"},{"name":"","type":"address","internalType":"address"}],"outputs":[{"name":"","type":"bool","internalType":"bool"}],"stateMutability":"view"},{"type":"function","name":"canLeave","inputs":[{"name":"","type":"uint64","internalType":"uint64"},{"name":"","type":"address","internalType":"address"}],"outputs":[{"name":"","type":"bool","internalType":"bool"}],"stateMutability":"view"},{"type":"function","name":"configureModel","inputs":[{"name":"model","type":"string","internalType":"string"},{"name":"pricePerSecond","type":"uint64","internalType":"uint64"},{"name":"minGpuVramMib","type":"uint32","internalType":"uint32"},{"name":"maxDuration","type":"uint32","internalType":"uint32"}],"outputs":[],"stateMutability":"nonpayable"},{"type":"function","name":"getActiveOperators","inputs":[{"name":"model","type":"string","internalType":"string"}],"outputs":[{"name":"","type":"address[]","internalType":"address[]"}],"stateMutability":"view"},{"type":"function","name":"getAggregationThreshold","inputs":[{"name":"","type":"uint64","internalType":"uint64"},{"name":"","type":"uint8","internalType":"uint8"}],"outputs":[{"name":"","type":"uint16","internalType":"uint16"},{"name":"","type":"uint8","internalType":"uint8"}],"stateMutability":"view"},{"type":"function","name":"getExitConfig","inputs":[{"name":"","type":"uint64","internalType":"uint64"}],"outputs":[{"name":"useDefault","type":"bool","internalType":"bool"},{"name":"minCommitmentDuration","type":"uint64","internalType":"uint64"},{"name":"exitQueueDuration","type":"uint64","internalType":"uint64"},{"name":"forceExitAllowed","type":"bool","internalType":"bool"}],"stateMutability":"view"},{"type":"function","name":"getHeartbeatInterval","inputs":[{"name":"","type":"uint64","internalType":"uint64"}],"outputs":[{"name":"useDefault","type":"bool","internalType":"bool"},{"name":"interval","type":"uint64","internalType":"uint64"}],"stateMutability":"view"},{"type":"function","name":"getHeartbeatThreshold","inputs":[{"name":"","type":"uint64","internalType":"uint64"}],"outputs":[{"name":"useDefault","type":"bool","internalType":"bool"},{"name":"threshold","type":"uint8","internalType":"uint8"}],"stateMutability":"view"},{"type":"function","name":"getMinOperatorStake","inputs":[],"outputs":[{"name":"useDefault","type":"bool","internalType":"bool"},{"name":"minStake","type":"uint256","internalType":"uint256"}],"stateMutability":"view"},{"type":"function","name":"getNonPaymentTerminationPolicy","inputs":[{"name":"","type":"uint64","internalType":"uint64"}],"outputs":[{"name":"useDefault","type":"bool","internalType":"bool"},{"name":"graceIntervals","type":"uint64","internalType":"uint64"}],"stateMutability":"view"},{"type":"function","name":"getOperatorPricing","inputs":[{"name":"op","type":"address","internalType":"address"}],"outputs":[{"name":"pricePerSecond","type":"uint64","internalType":"uint64"},{"name":"endpoint","type":"string","internalType":"string"}],"stateMutability":"view"},{"type":"function","name":"getOperators","inputs":[],"outputs":[{"name":"","type":"address[]","internalType":"address[]"}],"stateMutability":"view"},{"type":"function","name":"getRequiredResultCount","inputs":[{"name":"","type":"uint64","internalType":"uint64"},{"name":"","type":"uint8","internalType":"uint8"}],"outputs":[{"name":"","type":"uint32","internalType":"uint32"}],"stateMutability":"view"},{"type":"function","name":"getSlashingWindow","inputs":[{"name":"","type":"uint64","internalType":"uint64"}],"outputs":[{"name":"useDefault","type":"bool","internalType":"bool"},{"name":"window","type":"uint64","internalType":"uint64"}],"stateMutability":"view"},{"type":"function","name":"isOperatorActive","inputs":[{"name":"op","type":"address","internalType":"address"}],"outputs":[{"name":"","type":"bool","internalType":"bool"}],"stateMutability":"view"},{"type":"function","name":"modelConfigs","inputs":[{"name":"","type":"bytes32","internalType":"bytes32"}],"outputs":[{"name":"pricePerSecond","type":"uint64","internalType":"uint64"},{"name":"minGpuVramMib","type":"uint32","internalType":"uint32"},{"name":"maxDurationSecs","type":"uint32","internalType":"uint32"},{"name":"enabled","type":"bool","internalType":"bool"}],"stateMutability":"view"},{"type":"function","name":"onAggregatedResult","inputs":[{"name":"","type":"uint64","internalType":"uint64"},{"name":"","type":"uint8","internalType":"uint8"},{"name":"","type":"uint64","internalType":"uint64"},{"name":"","type":"bytes","internalType":"bytes"},{"name":"","type":"uint256","internalType":"uint256"},{"name":"","type":"uint256[2]","internalType":"uint256[2]"},{"name":"","type":"uint256[4]","internalType":"uint256[4]"}],"outputs":[],"stateMutability":"nonpayable"},{"type":"function","name":"onApprove","inputs":[{"name":"","type":"address","internalType":"address"},{"name":"","type":"uint64","internalType":"uint64"},{"name":"","type":"uint8","internalType":"uint8"}],"outputs":[],"stateMutability":"payable"},{"type":"function","name":"onBlueprintCreated","inputs":[{"name":"_blueprintId","type":"uint64","internalType":"uint64"},{"name":"owner","type":"address","internalType":"address"},{"name":"_tangleCore","type":"address","internalType":"address"}],"outputs":[],"stateMutability":"nonpayable"},{"type":"function","name":"onExitCanceled","inputs":[{"name":"","type":"uint64","internalType":"uint64"},{"name":"","type":"address","internalType":"address"}],"outputs":[],"stateMutability":"nonpayable"},{"type":"function","name":"onExitScheduled","inputs":[{"name":"","type":"uint64","internalType":"uint64"},{"name":"","type":"address","internalType":"address"},{"name":"","type":"uint64","internalType":"uint64"}],"outputs":[],"stateMutability":"nonpayable"},{"type":"function","name":"onJobCall","inputs":[{"name":"","type":"uint64","internalType":"uint64"},{"name":"","type":"uint8","internalType":"uint8"},{"name":"","type":"uint64","internalType":"uint64"},{"name":"","type":"bytes","internalType":"bytes"}],"outputs":[],"stateMutability":"payable"},{"type":"function","name":"onJobResult","inputs":[{"name":"","type":"uint64","internalType":"uint64"},{"name":"","type":"uint8","internalType":"uint8"},{"name":"","type":"uint64","internalType":"uint64"},{"name":"","type":"address","internalType":"address"},{"name":"","type":"bytes","internalType":"bytes"},{"name":"","type":"bytes","internalType":"bytes"}],"outputs":[],"stateMutability":"payable"},{"type":"function","name":"onOperatorJoined","inputs":[{"name":"","type":"uint64","internalType":"uint64"},{"name":"","type":"address","internalType":"address"},{"name":"","type":"uint16","internalType":"uint16"}],"outputs":[],"stateMutability":"nonpayable"},{"type":"function","name":"onOperatorLeft","inputs":[{"name":"","type":"uint64","internalType":"uint64"},{"name":"","type":"address","internalType":"address"}],"outputs":[],"stateMutability":"nonpayable"},{"type":"function","name":"onRegister","inputs":[{"name":"operator","type":"address","internalType":"address"},{"name":"registrationInputs","type":"bytes","internalType":"bytes"}],"outputs":[],"stateMutability":"payable"},{"type":"function","name":"onReject","inputs":[{"name":"","type":"address","internalType":"address"},{"name":"","type":"uint64","internalType":"uint64"}],"outputs":[],"stateMutability":"nonpayable"},{"type":"function","name":"onRequest","inputs":[{"name":"","type":"uint64","internalType":"uint64"},{"name":"","type":"address","internalType":"address"},{"name":"","type":"address[]","internalType":"address[]"},{"name":"","type":"bytes","internalType":"bytes"},{"name":"","type":"uint64","internalType":"uint64"},{"name":"","type":"address","internalType":"address"},{"name":"","type":"uint256","internalType":"uint256"}],"outputs":[],"stateMutability":"payable"},{"type":"function","name":"onServiceInitialized","inputs":[{"name":"","type":"uint64","internalType":"uint64"},{"name":"","type":"uint64","internalType":"uint64"},{"name":"","type":"uint64","internalType":"uint64"},{"name":"","type":"address","internalType":"address"},{"name":"","type":"address[]","internalType":"address[]"},{"name":"","type":"uint64","internalType":"uint64"}],"outputs":[],"stateMutability":"nonpayable"},{"type":"function","name":"onServiceTermination","inputs":[{"name":"","type":"uint64","internalType":"uint64"},{"name":"","type":"address","internalType":"address"}],"outputs":[],"stateMutability":"nonpayable"},{"type":"function","name":"onSlash","inputs":[{"name":"","type":"uint64","internalType":"uint64"},{"name":"","type":"bytes","internalType":"bytes"},{"name":"","type":"uint8","internalType":"uint8"}],"outputs":[],"stateMutability":"nonpayable"},{"type":"function","name":"onUnappliedSlash","inputs":[{"name":"","type":"uint64","internalType":"uint64"},{"name":"","type":"bytes","internalType":"bytes"},{"name":"","type":"uint8","internalType":"uint8"}],"outputs":[],"stateMutability":"nonpayable"},{"type":"function","name":"onUnregister","inputs":[{"name":"operator","type":"address","internalType":"address"}],"outputs":[],"stateMutability":"nonpayable"},{"type":"function","name":"onUpdatePreferences","inputs":[{"name":"operator","type":"address","internalType":"address"},{"name":"preferences","type":"bytes","internalType":"bytes"}],"outputs":[],"stateMutability":"payable"},{"type":"function","name":"operatorCaps","inputs":[{"name":"","type":"address","internalType":"address"}],"outputs":[{"name":"model","type":"string","internalType":"string"},{"name":"gpuCount","type":"uint32","internalType":"uint32"},{"name":"totalVramMib","type":"uint32","internalType":"uint32"},{"name":"gpuModel","type":"string","internalType":"string"},{"name":"maxDurationSecs","type":"uint32","internalType":"uint32"},{"name":"endpoint","type":"string","internalType":"string"},{"name":"active","type":"bool","internalType":"bool"}],"stateMutability":"view"},{"type":"function","name":"queryDeveloperPaymentAddress","inputs":[{"name":"","type":"uint64","internalType":"uint64"}],"outputs":[{"name":"","type":"address","internalType":"address payable"}],"stateMutability":"view"},{"type":"function","name":"queryDisputeOrigin","inputs":[{"name":"","type":"uint64","internalType":"uint64"}],"outputs":[{"name":"","type":"address","internalType":"address"}],"stateMutability":"view"},{"type":"function","name":"queryIsPaymentAssetAllowed","inputs":[{"name":"serviceId","type":"uint64","internalType":"uint64"},{"name":"asset","type":"address","internalType":"address"}],"outputs":[{"name":"","type":"bool","internalType":"bool"}],"stateMutability":"view"},{"type":"function","name":"querySlashingOrigin","inputs":[{"name":"","type":"uint64","internalType":"uint64"}],"outputs":[{"name":"","type":"address","internalType":"address"}],"stateMutability":"view"},{"type":"function","name":"requiresAggregation","inputs":[{"name":"","type":"uint64","internalType":"uint64"},{"name":"","type":"uint8","internalType":"uint8"}],"outputs":[{"name":"","type":"bool","internalType":"bool"}],"stateMutability":"view"},{"type":"function","name":"tangleCore","inputs":[],"outputs":[{"name":"","type":"address","internalType":"address"}],"stateMutability":"view"},{"type":"function","name":"validateRequest","inputs":[{"name":"operator","type":"address","internalType":"address"},{"name":"durationSecs","type":"uint32","internalType":"uint32"},{"name":"resolution","type":"string","internalType":"string"}],"outputs":[{"name":"","type":"bool","internalType":"bool"}],"stateMutability":"view"},{"type":"event","name":"ModelConfigured","inputs":[{"name":"model","type":"string","indexed":false,"internalType":"string"},{"name":"pricePerSecond","type":"uint64","indexed":false,"internalType":"uint64"},{"name":"minGpuVramMib","type":"uint32","indexed":false,"internalType":"uint32"},{"name":"maxDurationSecs","type":"uint32","indexed":false,"internalType":"uint32"}],"anonymous":false},{"type":"event","name":"OperatorRegistered","inputs":[{"name":"operator","type":"address","indexed":true,"internalType":"address"},{"name":"model","type":"string","indexed":false,"internalType":"string"},{"name":"gpuCount","type":"uint32","indexed":false,"internalType":"uint32"},{"name":"totalVramMib","type":"uint32","indexed":false,"internalType":"uint32"},{"name":"maxDurationSecs","type":"uint32","indexed":false,"internalType":"uint32"}],"anonymous":false},{"type":"error","name":"AlreadyInitialized","inputs":[]},{"type":"error","name":"OnlyBlueprintOwnerAllowed","inputs":[{"name":"caller","type":"address","internalType":"address"},{"name":"owner","type":"address","internalType":"address"}]},{"type":"error","name":"OnlyTangleAllowed","inputs":[{"name":"caller","type":"address","internalType":"address"},{"name":"tangle","type":"address","internalType":"address"}]}],"bytecode":{"object":"0x60808060405234601557612119908161001a8239f35b5f80fdfe6080604052600436101561001a575b3615610018575f80fd5b005b5f3560e01c806268080b14610bb857806308179f3514611bc55780630881898f14610b995780630b6535d714611b2a578063146b55cf14611a5a57806314b4df4c14610bb3578063151a457614611a16578063158bb2eb146119af57806319ed5bb2146119825780631a74f8ae146117e55780631f41662b1461160157806325fcc64e146115cd57806327a099d8146115445780633fdadfcc14610bb85780634299b960146114e65780634c443e04146114b85780635440662c1461086157806354dce6c2146114985780635a936dc61461147157806367793cc614610bbd57806371e8e85d14610bb857806374ceeb5514610bb35780637e14b91914610b9957806382a1ece414610b3b578063916472701461092b57806392cbb78e14610901578063965d231b146108615780639838caa3146108bb5780639aa26a9214610883578063a24e8a9014610861578063b159eb341461083b578063b47242e814610591578063c28cd812146107ca578063c40c80d114610750578063c9cd4a181461072e578063cb110dc114610637578063d2672ed414610600578063e0559c63146105cc578063e390fcdb14610596578063e518de7614610591578063eb47353314610551578063eff8be07146103bc578063f58e206614610260578063f8407662146102385763fe0b15e70361000e5734610234575f3660031901126102345760206001600160401b035f5460a01c16604051908152f35b5f80fd5b34610234575f366003190112610234576001546040516001600160a01b039091168152602090f35b61026936611e09565b6102716120b7565b81016020828203126102345781356001600160401b038111610234576102979201612023565b9060018060a01b03165f526003602052600560405f200181516001600160401b0381116103a8576102c88254611e9e565b601f811161036d575b50602092601f821160011461031157610302929382915f92610306575b50508160011b915f199060031b1c19161790565b9055005b0151905084806102ee565b601f19821693835f52805f20915f5b868110610355575083600195961061033d575b505050811b019055005b01515f1960f88460031b161c19169055838080610333565b91926020600181928685015181550194019201610320565b61039890835f5260205f20601f840160051c8101916020851061039e575b601f0160051c0190612041565b836102d1565b909150819061038b565b634e487b7160e01b5f52604160045260245ffd5b34610234576080366003190112610234576004356001600160401b038111610234576103ec903690600401611c65565b6103f4611c23565b60443563ffffffff8116809103610234576064359163ffffffff8316809303610234576001546001600160a01b03163381900361053b575060a0927fd9c33757ed6120852817ea2cf52a91634dc9fa8f18120c536ff128cbbf364bd0959285926001600160401b036040519161046983611f57565b1690818152602081018381526040820185815260608301906001825261049036898b611fde565b602081519101205f5260046020526001600160401b0360405f20945116926bffffffff00000000000000008554915160401b169163ffffffff60601b905160601b169260ff60801b9051151560801b169360ff60801b19916fffffffffffffffffffffffffffffffff19161716171717905560405196879560808752816080880152878701375f858501870152602085015260408401526060830152601f01601f19168101030190a1005b630b3dddb760e01b5f523360045260245260445ffd5b34610234576020366003190112610234576001600160a01b03610572611d19565b165f526003602052602060ff600660405f200154166040519015158152f35b611e7c565b346102345760403660031901126102345760206105c26105b4611bf7565b6105bc611d03565b90612065565b6040519015158152f35b34610234576060366003190112610234576105e5611bf7565b506105ee611d03565b506105f7611c0d565b506100186120b7565b3461023457602036600319011261023457610619611bf7565b506080604051600181525f60208201525f60408201525f6060820152f35b34610234576020366003190112610234576001600160a01b03610658611d19565b165f5260036020526106f060405f2060405190610680826106798184611ed6565b0383611f8e565b6107226001820154604051926106a48461069d8160028501611ed6565b0385611f8e565b61070f63ffffffff6003830154169260ff6006604051946106d3866106cc8160058501611ed6565b0387611f8e565b0154169563ffffffff604051998a9960e08b5260e08b0190611da3565b9281811660208b015260201c1660408901528782036060890152611da3565b91608086015284820360a0860152611da3565b90151560c08301520390f35b3461023457604036600319011261023457610747611d19565b506105f7611c23565b60c036600319011261023457610764611bf7565b5061076d611c92565b50610776611c0d565b5061077f611d2f565b506084356001600160401b0381116102345761079f903690600401611c65565b505060a4356001600160401b038111610234576107c0903690600401611c65565b50506100186120b7565b60e0366003190112610234576107de611bf7565b506107e7611d03565b506044356001600160401b03811161023457610807903690600401611e4c565b50506064356001600160401b03811161023457610828903690600401611c65565b5050610832611c4f565b506105f7611d45565b60603660031901126102345761084f611d19565b50610858611c23565b506105f7611ca2565b346102345760403660031901126102345761087a611bf7565b506105f7611d03565b346102345760603660031901126102345761089c611bf7565b506108a5611d03565b5060443561ffff811603610234576100186120b7565b6080366003190112610234576108cf611bf7565b506108d8611c92565b506108e1611c0d565b506064356001600160401b038111610234576107c0903690600401611c65565b346102345760203660031901126102345761091a611bf7565b5060408051600181525f6020820152f35b34610234576020366003190112610234576004356001600160401b0381116102345761095e610965913690600401611c65565b3691611fde565b602081519101205f905f90600554915b828110610aa6575061098683611faf565b926109946040519485611f8e565b8084526109a3601f1991611faf565b013660208501375f905f5b8381106109c757604051806109c38782611dc7565b0390f35b6109d081611fc6565b60018060a01b0391549060031b1c165f52600360205260ff600660405f2001541680610a5b575b610a04575b6001016109ae565b91610a0e83611fc6565b905460039190911b1c6001600160a01b031692610a2a82612057565b938651831015610a4757602060019360051b8801015290506109fc565b634e487b7160e01b5f52603260045260245ffd5b50610a6581611fc6565b60018060a01b0391549060031b1c165f52600360205281610a92610a9960405f2060405192838092611ed6565b0382611f8e565b60208151910120146109f7565b610aaf81611fc6565b60018060a01b0391549060031b1c165f52600360205260ff600660405f2001541680610af7575b610ae3575b600101610975565b92610aef600191612057565b939050610adb565b50610b0181611fc6565b60018060a01b0391549060031b1c165f52600360205281610a92610b2e60405f2060405192838092611ed6565b6020815191012014610ad6565b346102345760c036600319011261023457610b54611bf7565b50610b5d611c23565b50610b66611c0d565b50610b6f611d2f565b506084356001600160401b03811161023457610b8f903690600401611e4c565b50506105f7611c39565b3461023457610ba736611cb2565b505050506100186120b7565b611d7f565b610901565b610bc636611e09565b610bd19291926120b7565b82019160e0818403126102345780356001600160401b0381116102345783610bfa918301612023565b610c0660208301611d6e565b91610c1360408201611d6e565b9360608201356001600160401b0381116102345786610c33918401612023565b95610c4060808401611d6e565b9260a08101356001600160401b0381116102345781019180601f84011215610234578235610c6d81611faf565b93610c7b6040519586611f8e565b81855260208086019260051b820101918383116102345760208201905b838210611444575050505060c08201356001600160401b03811161023457610cc09201612023565b845160208601205f52600460205260405f2060405190610cdf82611f57565b54906001600160401b0382168152602081019063ffffffff8360401c16825260ff604082019363ffffffff8160601c16855260801c16159060608215910152611400575163ffffffff988916981688106113bb575163ffffffff168061134e575b5060405191610d4e83611f72565b85835263ffffffff602084019716948588526040840199898b526060850190815263ffffffff6080860192169889835260a0860193845260c0860194855260e08601966001885260018060a01b03169b8c5f52600360205260405f2096518051906001600160401b0382116103a857610dc78954611e9e565b601f811161131e575b50602090601f83116001146112bb57610dff92915f91836110fb5750508160011b915f199060031b1c19161790565b87555b63ffffffff80600189019351161663ffffffff198354161782555167ffffffff0000000082549160201b169067ffffffff0000000019161790556002850190518051906001600160401b0382116103a857610e5d8354611e9e565b601f811161128b575b50602090601f8311600114611221579180610e9d9263ffffffff9695945f926112165750508160011b915f199060031b1c19161790565b90555b511663ffffffff60038501911663ffffffff19825416179055600483019051805190600160401b82116103a857825482845580831061119f575b50602001915f5260205f20915f905b82821061108f57505050506005820190518051906001600160401b0382116103a857610f158354611e9e565b601f811161105f575b50602090601f8311600114610ff8579180610f529260069695945f92610fed5750508160011b915f199060031b1c19161790565b90555b019051151560ff8019835416911617905560055492600160401b8410156103a8577fa990944b4254055b73dd6b52729dc71b7ef492d40cb61b274f7060b54cc04a4494610fab856001610fd89701600555611fc6565b81549060031b9089821b9160018060a01b03901b1916179055604051948594608086526080860190611da3565b926020850152604084015260608301520390a2005b015190508c806102ee565b90601f19831691845f52815f20925f5b81811061104757509160019391856006989796941061102f575b505050811b019055610f55565b01515f1960f88460031b161c191690558b8080611022565b92936020600181928786015181550195019301611008565b61108990845f5260205f20601f850160051c8101916020861061039e57601f0160051c0190612041565b8a610f1e565b80518051906001600160401b0382116103a8576110ac8654611e9e565b601f811161116f575b50602090601f831160011461110657926110ec836001959460209487965f926110fb5750508160011b915f199060031b1c19161790565b87555b01940191019092610ee9565b015190505f806102ee565b90601f19831691875f52815f20925f5b818110611157575093602093600196938796938388951061113f575b505050811b0187556110ef565b01515f1960f88460031b161c191690555f8080611132565b92936020600181928786015181550195019301611116565b61119990875f5260205f20601f850160051c8101916020861061039e57601f0160051c0190612041565b8e6110b5565b835f528260205f2091820191015b8181106111ba5750610eda565b806111c760019254611e9e565b806111d4575b50016111ad565b601f811183146111e957505f81555b8e6111cd565b61120590825f5283601f60205f20920160051c82019101612041565b805f525f60208120818355556111e3565b015190508f806102ee565b90601f19831691845f52815f20925f5b818110611273575091600193918563ffffffff989796941061125b575b505050811b019055610ea0565b01515f1960f88460031b161c191690558e808061124e565b92936020600181928786015181550195019301611231565b6112b590845f5260205f20601f850160051c8101916020861061039e57601f0160051c0190612041565b8d610e66565b90601f198316918a5f52815f20925f5b81811061130657509084600195949392106112ee575b505050811b018755610e02565b01515f1960f88460031b161c191690558f80806112e1565b929360206001819287860151815501950193016112cb565b611348908a5f5260205f20601f850160051c8101916020861061039e57601f0160051c0190612041565b8f610dd0565b63ffffffff8516116113605788610d40565b60405162461bcd60e51b815260206004820152602d60248201527f566964656f47656e42534d3a206d6178206475726174696f6e2065786365656460448201526c1cc81b5bd9195b081b1a5b5a5d609a1b6064820152608490fd5b60405162461bcd60e51b815260206004820152601e60248201527f566964656f47656e42534d3a20696e73756666696369656e74205652414d00006044820152606490fd5b606460405162461bcd60e51b815260206004820152602060248201527f566964656f47656e42534d3a206d6f64656c206e6f7420737570706f727465646044820152fd5b81356001600160401b0381116102345760209161146687848094880101612023565b815201910190610c98565b34610234575f366003190112610234575f546040516001600160a01b039091168152602090f35b34610234575f3660031901126102345760408051600181525f6020820152f35b34610234576040366003190112610234576114d1611bf7565b506114da611c92565b50602060405160018152f35b34610234576020366003190112610234576004355f526004602052608060405f205460ff604051916001600160401b038116835263ffffffff8160401c16602084015263ffffffff8160601c166040840152831c1615156060820152f35b34610234575f3660031901126102345760405180602060055491828152019060055f527f036b6384b5eca791c62761152d0c79bb0604c104a5fb6f4eb0703f3154bb3db0905f5b8181106115ae576109c3856115a281870382611f8e565b60405191829182611dc7565b82546001600160a01b031684526020909301926001928301920161158b565b34610234576040366003190112610234576115e6611bf7565b506115ef611c92565b5060408051611a2c81525f6020820152f35b346102345760603660031901126102345761161a611d19565b611622611d5b565b6044356001600160401b03811161023457611641903690600401611c65565b909260018060a01b03165f52600360205260405f209160ff600684015416156117a15763ffffffff80600385015416911611611752575f9260045f9301908154938254905b8581106116f5575b505050505050156116a457602060405160018152f35b60405162461bcd60e51b815260206004820152602360248201527f566964656f47656e42534d3a20756e737570706f72746564207265736f6c757460448201526234b7b760e91b6064820152608490fd5b81811015610a4757835f52610a926117188260205f200160405192838092611ed6565b6020815191012061172a368786611fde565b602081519101201461173e57600101611686565b50505050505050600181808080808061168e565b60405162461bcd60e51b815260206004820152602160248201527f566964656f47656e42534d3a206475726174696f6e2065786365656473206d616044820152600f60fb1b6064820152608490fd5b606460405162461bcd60e51b815260206004820152602060248201527f566964656f47656e42534d3a206f70657261746f72206e6f74206163746976656044820152fd5b34610234576020366003190112610234576001600160a01b03611806611d19565b165f52600360205260405f2060405161181e81611f72565b60405161182f81610a928186611ed6565b815263ffffffff6001830154818116602084015260201c16604082015260405161186081610a928160028701611ed6565b606082015263ffffffff600383015416608082015260048201805461188481611faf565b916118926040519384611f8e565b81835260208301905f5260205f205f915b83831061195d575050505060a082015260ff6006604051936118d3856118cc8160058501611ed6565b0386611f8e565b60c08401948552015416151560e082015251602081519101205f52600460205260405f20906040519161190583611f57565b5491606060ff6001600160401b0385169485845263ffffffff8160401c16602085015263ffffffff81841c16604085015260801c16151591015251906109c36040519283928352604060208401526040830190611da3565b60016020819260405161197481610a928189611ed6565b8152019201920191906118a3565b346102345760403660031901126102345761199b611bf7565b506119a4611c92565b5060206040515f8152f35b3461023457610160366003190112610234576119c9611bf7565b506119d2611c92565b506119db611c0d565b506064356001600160401b038111610234576119fb903690600401611c65565b50503660e411610234573661016411610234576100186120b7565b3461023457602036600319011261023457611a2f611d19565b611a376120b7565b6001600160a01b03165f908152600360205260409020600601805460ff19169055005b3461023457604036600319011261023457611a73611d19565b611a7b611d5b565b9060018060a01b03165f526003602052610a92611aa160405f2060405192838092611ed6565b602081519101205f52600460205263ffffffff60405f209160405192611ac684611f57565b5492606060ff6001600160401b03861695868452858160401c1660208501528581841c16604085015260801c16151591015216026001600160401b038116908103611b1657602090604051908152f35b634e487b7160e01b5f52601160045260245ffd5b3461023457606036600319011261023457611b43611bf7565b611b4b611d03565b6044356001600160a01b0381169290839003610234575f54916001600160a01b038316611bb757600180546001600160a01b0319166001600160a01b03929092169190911790556001600160e01b031990911660a09190911b67ffffffffffffffff60a01b1617175f55005b62dc149f60e41b5f5260045ffd5b3461023457602036600319011261023457611bde611bf7565b506001546040516001600160a01b039091168152602090f35b600435906001600160401b038216820361023457565b604435906001600160401b038216820361023457565b602435906001600160401b038216820361023457565b60a435906001600160401b038216820361023457565b608435906001600160401b038216820361023457565b9181601f84011215610234578235916001600160401b038311610234576020838186019501011161023457565b6024359060ff8216820361023457565b6044359060ff8216820361023457565b906060600319830112610234576004356001600160401b03811681036102345791602435906001600160401b03821161023457611cf191600401611c65565b909160443560ff811681036102345790565b602435906001600160a01b038216820361023457565b600435906001600160a01b038216820361023457565b606435906001600160a01b038216820361023457565b60a435906001600160a01b038216820361023457565b6024359063ffffffff8216820361023457565b359063ffffffff8216820361023457565b3461023457602036600319011261023457611d98611bf7565b506020604051308152f35b805180835260209291819084018484015e5f828201840152601f01601f1916010190565b60206040818301928281528451809452019201905f5b818110611dea5750505090565b82516001600160a01b0316845260209384019390920191600101611ddd565b906040600319830112610234576004356001600160a01b03811681036102345791602435906001600160401b03821161023457611e4891600401611c65565b9091565b9181601f84011215610234578235916001600160401b038311610234576020808501948460051b01011161023457565b3461023457604036600319011261023457611e95611bf7565b506114da611d03565b90600182811c92168015611ecc575b6020831014611eb857565b634e487b7160e01b5f52602260045260245ffd5b91607f1691611ead565b5f9291815491611ee583611e9e565b8083529260018116908115611f3a5750600114611f0157505050565b5f9081526020812093945091925b838310611f20575060209250010190565b600181602092949394548385870101520191019190611f0f565b915050602093945060ff929192191683830152151560051b010190565b608081019081106001600160401b038211176103a857604052565b61010081019081106001600160401b038211176103a857604052565b90601f801991011681019081106001600160401b038211176103a857604052565b6001600160401b0381116103a85760051b60200190565b600554811015610a475760055f5260205f2001905f90565b9291926001600160401b0382116103a85760405191612007601f8201601f191660200184611f8e565b829481845281830111610234578281602093845f960137010152565b9080601f830112156102345781602061203e93359101611fde565b90565b81811061204c575050565b5f8155600101612041565b5f198114611b165760010190565b6001600160a01b039091169081156120b0576001600160401b0316805f52600260205260405f2054156120b0575f526002602052600160405f2001905f5260205260405f2054151590565b5050600190565b5f546001600160a01b0316338190036120cd5750565b63032dd5e360e11b5f523360045260245260445ffdfea26469706673582212204cf90041f0843625b84fda4471d04731cf27641e0630eebeddc0a925a17a629164736f6c634300081a0033","linkReferences":{}},"methodIdentifiers":{"blueprintId()":"fe0b15e7","blueprintOwner()":"f8407662","calculateCost(address,uint32)":"146b55cf","canJoin(uint64,address)":"b47242e8","canLeave(uint64,address)":"e518de76","configureModel(string,uint64,uint32,uint32)":"eff8be07","getActiveOperators(string)":"91647270","getAggregationThreshold(uint64,uint8)":"25fcc64e","getExitConfig(uint64)":"d2672ed4","getHeartbeatInterval(uint64)":"0068080b","getHeartbeatThreshold(uint64)":"92cbb78e","getMinOperatorStake()":"54dce6c2","getNonPaymentTerminationPolicy(uint64)":"71e8e85d","getOperatorPricing(address)":"1a74f8ae","getOperators()":"27a099d8","getRequiredResultCount(uint64,uint8)":"4c443e04","getSlashingWindow(uint64)":"3fdadfcc","isOperatorActive(address)":"eb473533","modelConfigs(bytes32)":"4299b960","onAggregatedResult(uint64,uint8,uint64,bytes,uint256,uint256[2],uint256[4])":"158bb2eb","onApprove(address,uint64,uint8)":"b159eb34","onBlueprintCreated(uint64,address,address)":"0b6535d7","onExitCanceled(uint64,address)":"5440662c","onExitScheduled(uint64,address,uint64)":"e0559c63","onJobCall(uint64,uint8,uint64,bytes)":"9838caa3","onJobResult(uint64,uint8,uint64,address,bytes,bytes)":"c40c80d1","onOperatorJoined(uint64,address,uint16)":"9aa26a92","onOperatorLeft(uint64,address)":"965d231b","onRegister(address,bytes)":"67793cc6","onReject(address,uint64)":"c9cd4a18","onRequest(uint64,address,address[],bytes,uint64,address,uint256)":"c28cd812","onServiceInitialized(uint64,uint64,uint64,address,address[],uint64)":"82a1ece4","onServiceTermination(uint64,address)":"a24e8a90","onSlash(uint64,bytes,uint8)":"7e14b919","onUnappliedSlash(uint64,bytes,uint8)":"0881898f","onUnregister(address)":"151a4576","onUpdatePreferences(address,bytes)":"f58e2066","operatorCaps(address)":"cb110dc1","queryDeveloperPaymentAddress(uint64)":"08179f35","queryDisputeOrigin(uint64)":"14b4df4c","queryIsPaymentAssetAllowed(uint64,address)":"e390fcdb","querySlashingOrigin(uint64)":"74ceeb55","requiresAggregation(uint64,uint8)":"19ed5bb2","tangleCore()":"5a936dc6","validateRequest(address,uint32,string)":"1f41662b"},"id":26}