{"abi":[{"type":"receive","stateMutability":"payable"},{"type":"function","name":"blueprintId","inputs":[],"outputs":[{"name":"","type":"uint64","internalType":"uint64"}],"stateMutability":"view"},{"type":"function","name":"blueprintOwner","inputs":[],"outputs":[{"name":"","type":"address","internalType":"address"}],"stateMutability":"view"},{"type":"function","name":"canJoin","inputs":[{"name":"","type":"uint64","internalType":"uint64"},{"name":"","type":"address","internalType":"address"}],"outputs":[{"name":"","type":"bool","internalType":"bool"}],"stateMutability":"view"},{"type":"function","name":"canLeave","inputs":[{"name":"","type":"uint64","internalType":"uint64"},{"name":"","type":"address","internalType":"address"}],"outputs":[{"name":"","type":"bool","internalType":"bool"}],"stateMutability":"view"},{"type":"function","name":"getAggregationThreshold","inputs":[{"name":"","type":"uint64","internalType":"uint64"},{"name":"","type":"uint8","internalType":"uint8"}],"outputs":[{"name":"","type":"uint16","internalType":"uint16"},{"name":"","type":"uint8","internalType":"uint8"}],"stateMutability":"view"},{"type":"function","name":"getExitConfig","inputs":[{"name":"","type":"uint64","internalType":"uint64"}],"outputs":[{"name":"useDefault","type":"bool","internalType":"bool"},{"name":"minCommitmentDuration","type":"uint64","internalType":"uint64"},{"name":"exitQueueDuration","type":"uint64","internalType":"uint64"},{"name":"forceExitAllowed","type":"bool","internalType":"bool"}],"stateMutability":"view"},{"type":"function","name":"getHeartbeatInterval","inputs":[{"name":"","type":"uint64","internalType":"uint64"}],"outputs":[{"name":"useDefault","type":"bool","internalType":"bool"},{"name":"interval","type":"uint64","internalType":"uint64"}],"stateMutability":"view"},{"type":"function","name":"getHeartbeatThreshold","inputs":[{"name":"","type":"uint64","internalType":"uint64"}],"outputs":[{"name":"useDefault","type":"bool","internalType":"bool"},{"name":"threshold","type":"uint8","internalType":"uint8"}],"stateMutability":"view"},{"type":"function","name":"getMinOperatorStake","inputs":[],"outputs":[{"name":"useDefault","type":"bool","internalType":"bool"},{"name":"minStake","type":"uint256","internalType":"uint256"}],"stateMutability":"view"},{"type":"function","name":"getNonPaymentTerminationPolicy","inputs":[{"name":"","type":"uint64","internalType":"uint64"}],"outputs":[{"name":"useDefault","type":"bool","internalType":"bool"},{"name":"graceIntervals","type":"uint64","internalType":"uint64"}],"stateMutability":"view"},{"type":"function","name":"getRequiredResultCount","inputs":[{"name":"","type":"uint64","internalType":"uint64"},{"name":"","type":"uint8","internalType":"uint8"}],"outputs":[{"name":"","type":"uint32","internalType":"uint32"}],"stateMutability":"view"},{"type":"function","name":"getSlashingWindow","inputs":[{"name":"","type":"uint64","internalType":"uint64"}],"outputs":[{"name":"useDefault","type":"bool","internalType":"bool"},{"name":"window","type":"uint64","internalType":"uint64"}],"stateMutability":"view"},{"type":"function","name":"onAggregatedResult","inputs":[{"name":"","type":"uint64","internalType":"uint64"},{"name":"","type":"uint8","internalType":"uint8"},{"name":"","type":"uint64","internalType":"uint64"},{"name":"","type":"bytes","internalType":"bytes"},{"name":"","type":"uint256","internalType":"uint256"},{"name":"","type":"uint256[2]","internalType":"uint256[2]"},{"name":"","type":"uint256[4]","internalType":"uint256[4]"}],"outputs":[],"stateMutability":"nonpayable"},{"type":"function","name":"onApprove","inputs":[{"name":"","type":"address","internalType":"address"},{"name":"","type":"uint64","internalType":"uint64"},{"name":"","type":"uint8","internalType":"uint8"}],"outputs":[],"stateMutability":"payable"},{"type":"function","name":"onBlueprintCreated","inputs":[{"name":"_blueprintId","type":"uint64","internalType":"uint64"},{"name":"owner","type":"address","internalType":"address"},{"name":"_tangleCore","type":"address","internalType":"address"}],"outputs":[],"stateMutability":"nonpayable"},{"type":"function","name":"onExitCanceled","inputs":[{"name":"","type":"uint64","internalType":"uint64"},{"name":"","type":"address","internalType":"address"}],"outputs":[],"stateMutability":"nonpayable"},{"type":"function","name":"onExitScheduled","inputs":[{"name":"","type":"uint64","internalType":"uint64"},{"name":"","type":"address","internalType":"address"},{"name":"","type":"uint64","internalType":"uint64"}],"outputs":[],"stateMutability":"nonpayable"},{"type":"function","name":"onJobCall","inputs":[{"name":"","type":"uint64","internalType":"uint64"},{"name":"","type":"uint8","internalType":"uint8"},{"name":"","type":"uint64","internalType":"uint64"},{"name":"","type":"bytes","internalType":"bytes"}],"outputs":[],"stateMutability":"payable"},{"type":"function","name":"onJobResult","inputs":[{"name":"","type":"uint64","internalType":"uint64"},{"name":"","type":"uint8","internalType":"uint8"},{"name":"","type":"uint64","internalType":"uint64"},{"name":"","type":"address","internalType":"address"},{"name":"","type":"bytes","internalType":"bytes"},{"name":"","type":"bytes","internalType":"bytes"}],"outputs":[],"stateMutability":"payable"},{"type":"function","name":"onOperatorJoined","inputs":[{"name":"","type":"uint64","internalType":"uint64"},{"name":"","type":"address","internalType":"address"},{"name":"","type":"uint16","internalType":"uint16"}],"outputs":[],"stateMutability":"nonpayable"},{"type":"function","name":"onOperatorLeft","inputs":[{"name":"","type":"uint64","internalType":"uint64"},{"name":"","type":"address","internalType":"address"}],"outputs":[],"stateMutability":"nonpayable"},{"type":"function","name":"onRegister","inputs":[{"name":"","type":"address","internalType":"address"},{"name":"","type":"bytes","internalType":"bytes"}],"outputs":[],"stateMutability":"payable"},{"type":"function","name":"onReject","inputs":[{"name":"","type":"address","internalType":"address"},{"name":"","type":"uint64","internalType":"uint64"}],"outputs":[],"stateMutability":"nonpayable"},{"type":"function","name":"onRequest","inputs":[{"name":"","type":"uint64","internalType":"uint64"},{"name":"","type":"address","internalType":"address"},{"name":"","type":"address[]","internalType":"address[]"},{"name":"","type":"bytes","internalType":"bytes"},{"name":"","type":"uint64","internalType":"uint64"},{"name":"","type":"address","internalType":"address"},{"name":"","type":"uint256","internalType":"uint256"}],"outputs":[],"stateMutability":"payable"},{"type":"function","name":"onServiceInitialized","inputs":[{"name":"","type":"uint64","internalType":"uint64"},{"name":"","type":"uint64","internalType":"uint64"},{"name":"","type":"uint64","internalType":"uint64"},{"name":"","type":"address","internalType":"address"},{"name":"","type":"address[]","internalType":"address[]"},{"name":"","type":"uint64","internalType":"uint64"}],"outputs":[],"stateMutability":"nonpayable"},{"type":"function","name":"onServiceTermination","inputs":[{"name":"","type":"uint64","internalType":"uint64"},{"name":"","type":"address","internalType":"address"}],"outputs":[],"stateMutability":"nonpayable"},{"type":"function","name":"onSlash","inputs":[{"name":"","type":"uint64","internalType":"uint64"},{"name":"","type":"bytes","internalType":"bytes"},{"name":"","type":"uint8","internalType":"uint8"}],"outputs":[],"stateMutability":"nonpayable"},{"type":"function","name":"onUnappliedSlash","inputs":[{"name":"","type":"uint64","internalType":"uint64"},{"name":"","type":"bytes","internalType":"bytes"},{"name":"","type":"uint8","internalType":"uint8"}],"outputs":[],"stateMutability":"nonpayable"},{"type":"function","name":"onUnregister","inputs":[{"name":"","type":"address","internalType":"address"}],"outputs":[],"stateMutability":"nonpayable"},{"type":"function","name":"onUpdatePreferences","inputs":[{"name":"","type":"address","internalType":"address"},{"name":"","type":"bytes","internalType":"bytes"}],"outputs":[],"stateMutability":"payable"},{"type":"function","name":"queryDeveloperPaymentAddress","inputs":[{"name":"","type":"uint64","internalType":"uint64"}],"outputs":[{"name":"","type":"address","internalType":"address payable"}],"stateMutability":"view"},{"type":"function","name":"queryDisputeOrigin","inputs":[{"name":"","type":"uint64","internalType":"uint64"}],"outputs":[{"name":"","type":"address","internalType":"address"}],"stateMutability":"view"},{"type":"function","name":"queryIsPaymentAssetAllowed","inputs":[{"name":"serviceId","type":"uint64","internalType":"uint64"},{"name":"asset","type":"address","internalType":"address"}],"outputs":[{"name":"","type":"bool","internalType":"bool"}],"stateMutability":"view"},{"type":"function","name":"querySlashingOrigin","inputs":[{"name":"","type":"uint64","internalType":"uint64"}],"outputs":[{"name":"","type":"address","internalType":"address"}],"stateMutability":"view"},{"type":"function","name":"requiresAggregation","inputs":[{"name":"","type":"uint64","internalType":"uint64"},{"name":"","type":"uint8","internalType":"uint8"}],"outputs":[{"name":"","type":"bool","internalType":"bool"}],"stateMutability":"view"},{"type":"function","name":"tangleCore","inputs":[],"outputs":[{"name":"","type":"address","internalType":"address"}],"stateMutability":"view"},{"type":"error","name":"AlreadyInitialized","inputs":[]},{"type":"error","name":"OnlyBlueprintOwnerAllowed","inputs":[{"name":"caller","type":"address","internalType":"address"},{"name":"owner","type":"address","internalType":"address"}]},{"type":"error","name":"OnlyTangleAllowed","inputs":[{"name":"caller","type":"address","internalType":"address"},{"name":"tangle","type":"address","internalType":"address"}]}],"bytecode":{"object":"0x60808060405234601557610a2a908161001a8239f35b5f80fdfe6080604052600436101561001a575b3615610018575f80fd5b005b5f3560e01c806268080b1461053157806308179f35146107275780630881898f146105125780630b6535d71461068c57806314b4df4c1461052c578063151a457614610673578063158bb2eb1461060c57806319ed5bb2146105df57806325fcc64e146105ab5780633fdadfcc146105315780634c443e041461057d5780635440662c146103ea57806354dce6c21461055d5780635a936dc61461053657806367793cc6146101fd57806371e8e85d1461053157806374ceeb551461052c5780637e14b9191461051257806382a1ece4146104b457806392cbb78e1461048a578063965d231b146103ea5780639838caa3146104445780639aa26a921461040c578063a24e8a90146103ea578063b159eb34146103c4578063b47242e814610211578063c28cd81214610353578063c40c80d1146102d9578063c9cd4a18146102b7578063d2672ed414610280578063e0559c631461024c578063e390fcdb14610216578063e518de7614610211578063f58e2066146101fd578063f8407662146101d55763fe0b15e70361000e57346101d1575f3660031901126101d15760206001600160401b035f5460a01c16604051908152f35b5f80fd5b346101d1575f3660031901126101d1576001546040516001600160a01b039091168152602090f35b610206366108e1565b5050506100186109c8565b610954565b346101d15760403660031901126101d1576020610242610234610759565b61023c610865565b90610976565b6040519015158152f35b346101d15760603660031901126101d157610265610759565b5061026e610865565b5061027761076f565b506100186109c8565b346101d15760203660031901126101d157610299610759565b506080604051600181525f60208201525f60408201525f6060820152f35b346101d15760403660031901126101d1576102d061087b565b50610277610785565b60c03660031901126101d1576102ed610759565b506102f66107f4565b506102ff61076f565b50610308610891565b506084356001600160401b0381116101d1576103289036906004016107c7565b505060a4356001600160401b0381116101d1576103499036906004016107c7565b50506100186109c8565b60e03660031901126101d157610367610759565b50610370610865565b506044356001600160401b0381116101d157610390903690600401610924565b50506064356001600160401b0381116101d1576103b19036906004016107c7565b50506103bb6107b1565b506102776108a7565b60603660031901126101d1576103d861087b565b506103e1610785565b50610277610804565b346101d15760403660031901126101d157610403610759565b50610277610865565b346101d15760603660031901126101d157610425610759565b5061042e610865565b5060443561ffff8116036101d1576100186109c8565b60803660031901126101d157610458610759565b506104616107f4565b5061046a61076f565b506064356001600160401b0381116101d1576103499036906004016107c7565b346101d15760203660031901126101d1576104a3610759565b5060408051600181525f6020820152f35b346101d15760c03660031901126101d1576104cd610759565b506104d6610785565b506104df61076f565b506104e8610891565b506084356001600160401b0381116101d157610508903690600401610924565b505061027761079b565b346101d15761052036610814565b505050506100186109c8565b6108bd565b61048a565b346101d1575f3660031901126101d1575f546040516001600160a01b039091168152602090f35b346101d1575f3660031901126101d15760408051600181525f6020820152f35b346101d15760403660031901126101d157610596610759565b5061059f6107f4565b50602060405160018152f35b346101d15760403660031901126101d1576105c4610759565b506105cd6107f4565b5060408051611a2c81525f6020820152f35b346101d15760403660031901126101d1576105f8610759565b506106016107f4565b5060206040515f8152f35b346101d1576101603660031901126101d157610626610759565b5061062f6107f4565b5061063861076f565b506064356001600160401b0381116101d1576106589036906004016107c7565b50503660e4116101d15736610164116101d1576100186109c8565b346101d15760203660031901126101d15761027761087b565b346101d15760603660031901126101d1576106a5610759565b6106ad610865565b6044356001600160a01b03811692908390036101d1575f54916001600160a01b03831661071957600180546001600160a01b0319166001600160a01b03929092169190911790556001600160e01b031990911660a09190911b67ffffffffffffffff60a01b1617175f55005b62dc149f60e41b5f5260045ffd5b346101d15760203660031901126101d157610740610759565b506001546040516001600160a01b039091168152602090f35b600435906001600160401b03821682036101d157565b604435906001600160401b03821682036101d157565b602435906001600160401b03821682036101d157565b60a435906001600160401b03821682036101d157565b608435906001600160401b03821682036101d157565b9181601f840112156101d1578235916001600160401b0383116101d157602083818601950101116101d157565b6024359060ff821682036101d157565b6044359060ff821682036101d157565b9060606003198301126101d1576004356001600160401b03811681036101d15791602435906001600160401b0382116101d157610853916004016107c7565b909160443560ff811681036101d15790565b602435906001600160a01b03821682036101d157565b600435906001600160a01b03821682036101d157565b606435906001600160a01b03821682036101d157565b60a435906001600160a01b03821682036101d157565b346101d15760203660031901126101d1576108d6610759565b506020604051308152f35b9060406003198301126101d1576004356001600160a01b03811681036101d15791602435906001600160401b0382116101d157610920916004016107c7565b9091565b9181601f840112156101d1578235916001600160401b0383116101d1576020808501948460051b0101116101d157565b346101d15760403660031901126101d15761096d610759565b5061059f610865565b6001600160a01b039091169081156109c1576001600160401b0316805f52600260205260405f2054156109c1575f526002602052600160405f2001905f5260205260405f2054151590565b5050600190565b5f546001600160a01b0316338190036109de5750565b63032dd5e360e11b5f523360045260245260445ffdfea2646970667358221220db41c66193327baca2c4fc90273d8dad69618cb4b841c8d97f7ba2cc032e5a8f64736f6c634300081a0033","linkReferences":{}},"methodIdentifiers":{"blueprintId()":"fe0b15e7","blueprintOwner()":"f8407662","canJoin(uint64,address)":"b47242e8","canLeave(uint64,address)":"e518de76","getAggregationThreshold(uint64,uint8)":"25fcc64e","getExitConfig(uint64)":"d2672ed4","getHeartbeatInterval(uint64)":"0068080b","getHeartbeatThreshold(uint64)":"92cbb78e","getMinOperatorStake()":"54dce6c2","getNonPaymentTerminationPolicy(uint64)":"71e8e85d","getRequiredResultCount(uint64,uint8)":"4c443e04","getSlashingWindow(uint64)":"3fdadfcc","onAggregatedResult(uint64,uint8,uint64,bytes,uint256,uint256[2],uint256[4])":"158bb2eb","onApprove(address,uint64,uint8)":"b159eb34","onBlueprintCreated(uint64,address,address)":"0b6535d7","onExitCanceled(uint64,address)":"5440662c","onExitScheduled(uint64,address,uint64)":"e0559c63","onJobCall(uint64,uint8,uint64,bytes)":"9838caa3","onJobResult(uint64,uint8,uint64,address,bytes,bytes)":"c40c80d1","onOperatorJoined(uint64,address,uint16)":"9aa26a92","onOperatorLeft(uint64,address)":"965d231b","onRegister(address,bytes)":"67793cc6","onReject(address,uint64)":"c9cd4a18","onRequest(uint64,address,address[],bytes,uint64,address,uint256)":"c28cd812","onServiceInitialized(uint64,uint64,uint64,address,address[],uint64)":"82a1ece4","onServiceTermination(uint64,address)":"a24e8a90","onSlash(uint64,bytes,uint8)":"7e14b919","onUnappliedSlash(uint64,bytes,uint8)":"0881898f","onUnregister(address)":"151a4576","onUpdatePreferences(address,bytes)":"f58e2066","queryDeveloperPaymentAddress(uint64)":"08179f35","queryDisputeOrigin(uint64)":"14b4df4c","queryIsPaymentAssetAllowed(uint64,address)":"e390fcdb","querySlashingOrigin(uint64)":"74ceeb55","requiresAggregation(uint64,uint8)":"19ed5bb2","tangleCore()":"5a936dc6"},"id":24}